:020000040800F2
:1000000000800020794D0008C94D0008C94D000846
:10001000C94D0008C94D0008C94D00080000000086
:10002000000000000000000000000000C94D0008B2
:10003000C94D000800000000C94D0008CD1300089C
:10004000C94D0008C94D0008C94D0008C94D000838
:10005000C94D0008C94D0008C94D0008C94D000828
:10006000C94D0008C94D0008C94D0008C94D000818
:10007000C94D0008C94D0008C94D0008C94D000808
:10008000C94D0008C94D0008C94D0008C94D0008F8
:10009000811F0008C94D0008C94D0008C94D00085E
:1000A000C94D0008C94D0008C94D0008C94D0008D8
:1000B000C94D0008C94D0008C94D0008C94D0008C8
:1000C000C94D0008C94D0008C94D0008C94D0008B8
:1000D000C94D0008C94D0008C94D0008C94D0008A8
:1000E000C94D0008C94D0008C94D0008C94D000898
:1000F000C94D0008C94D0008C94D0008C94D000888
:10010000000000000000000000000000C94D0008D1
:10011000C94D0008C94D0008C94D0008C94D000867
:10012000C94D0008C94D0008C94D0008C94D000857
:10013000C94D0008C94D0008000000000000000083
:10014000C94D0008C94D0008C94D00080000000055
:10015000000000000000000000000000000000009F
:100160000000000000000000C94D0008C94D000853
:10017000C94D000800000000000000000000000061
:0801800000000000C94D000859
:1001880010B5054C237833B9044B13B10448AFF3C9
:1001980000800123237010BD3C0A002000000000ED
:1001A800EC970008084B10B51BB108480849AFF395
:1001B80000800848036803B910BD074B002BFBD02B
:1001C800BDE81040184700BF00000000EC97000889
:1001D800400A00203C0A00200000000000B502B4DC
:1001E800FFB41D4804F062FDFFBC1C49086802BC4E
:1001F80000BD00BF00B503B41849086800F101004C
:10020800086003BC00BD00BF00B503B4134908680B
:10021800B0F57A7F01DA03BC00BD104D4FF000063F
:100228002E600D4804F042FD0D4804F03FFD0D48D6
:1002380004F03CFD0C4804F039FD0C4804F036FD90
:100248000B4804F033FD0B4804F030FD0A4804F075
:100258002DFD00BF00B500BD00000000000000201B
:10026800010000000200000003000000040000007C
:10027800050000000600000007000000844641EA6F
:10028800000313F003036DD1403A41D351F8043B06
:1002980040F8043B51F8043B40F8043B51F8043B58
:1002A80040F8043B51F8043B40F8043B51F8043B48
:1002B80040F8043B51F8043B40F8043B51F8043B38
:1002C80040F8043B51F8043B40F8043B51F8043B28
:1002D80040F8043B51F8043B40F8043B51F8043B18
:1002E80040F8043B51F8043B40F8043B51F8043B08
:1002F80040F8043B51F8043B40F8043B51F8043BF8
:1003080040F8043B51F8043B40F8043B403ABDD266
:10031800303211D351F8043B40F8043B51F8043B08
:1003280040F8043B51F8043B40F8043B51F8043BC7
:1003380040F8043B103AEDD20C3205D351F8043B97
:1003480040F8043B043AF9D2043208D0D2071CBF63
:1003580011F8013B00F8013B01D30B88038060468C
:10036800704700BF082A13D38B078DD010F0030302
:100378008AD0C3F10403D21ADB071CBF11F8013B72
:1003880000F8013B80D331F8023B20F8023B7BE7C1
:10039800043AD9D3013A11F8013B00F8013BF9D2EC
:1003A8000B7803704B7843708B7883706046704786
:1003B80081F0004102E000BF83F0004330B54FEA0E
:1003C80041044FEA430594EA050F08BF90EA020F7B
:1003D8001FBF54EA000C55EA020C7FEA645C7FEA0E
:1003E800655C00F0E2804FEA5454D4EB5555B8BF31
:1003F8006D420CDD2C4480EA020281EA030382EAA2
:10040800000083EA010180EA020281EA0303362D33
:1004180088BF30BD11F0004F4FEA01314FF4801C06
:100428004CEA113102D0404261EB410113F0004F18
:100438004FEA03334CEA133302D0524263EB4303CF
:1004480094EA050F00F0A780A4F10104D5F1200E6D
:100458000DDB02FA0EFC22FA05F2801841F10001C8
:1004680003FA0EF2801843FA05F359410EE0A5F19C
:1004780020050EF1200E012A03FA0EFC28BF4CF0CD
:10048800020C43FA05F3C01851EBE37101F0004583
:1004980007D54FF0000EDCF1000C7EEB00006EEB90
:1004A8000101B1F5801F1BD3B1F5001F0CD349081A
:1004B8005FEA30004FEA3C0C04F101044FEA445271
:1004C80012F5800F80F09A80BCF1004F08BF5FEAF8
:1004D800500C50F1000041EB045141EA050130BDD8
:1004E8005FEA4C0C404141EB010111F4801FA4F17B
:1004F8000104E9D191F0000F04BF01460020B1FAD0
:1005080081F308BF2033A3F10B03B3F120020CDA07
:100518000C3208DD02F1140CC2F10C0201FA0CF0E5
:1005280021FA02F10CE002F11402D8BFC2F1200C4A
:1005380001FA02F120FA0CFCDCBF41EA0C01904000
:10054800E41AA2BF01EB0451294330BD6FEA040449
:100558001F3C1CDA0C340EDC04F11404C4F1200234
:1005680020FA04F001FA02F340EA030021FA04F346
:1005780045EA030130BDC4F10C04C4F1200220FA9D
:1005880002F001FA04F340EA0300294630BD21FADB
:1005980004F0294630BD94F0000F83F4801306BFA1
:1005A80081F480110134013D4EE77FEA645C18BF95
:1005B8007FEA655C29D094EA050F08BF90EA020F2C
:1005C80005D054EA000C04BF1946104630BD91EA24
:1005D800030F1EBF0021002030BD5FEA545C05D127
:1005E8004000494128BF41F0004130BD14F5800466
:1005F8003CBF01F5801130BD01F0004545F0FE41DA
:1006080041F470014FF0000030BD7FEA645C1ABF0E
:10061800194610467FEA655C1CBF0B46024650EA45
:10062800013406BF52EA033591EA030F41F4002171
:1006380030BD00BF90F0000F04BF0021704730B5F7
:100648004FF4806404F132044FF000054FF00001CC
:1006580050E700BF90F0000F04BF0021704730B58D
:100668004FF4806404F1320410F0004548BF404262
:100678004FF000013EE700BF42004FEAE2014FEAB7
:1006880031014FEA02701FBF12F07F4393F07F4F92
:1006980081F06051704792F0000F14BF93F07F4FC4
:1006A800704730B54FF4607401F0004521F0004107
:1006B80020E700BF50EA010208BF704730B54FF08D
:1006C80000050AE050EA010208BF704730B511F092
:1006D800004502D5404261EB41014FF4806404F1CA
:1006E80032045FEA915C3FF4DCAE4FF003025FEA4C
:1006F800DC0C18BF03325FEADC0C18BF033202EBD4
:10070800DC02C2F1200300FA03FC20FA02F001FA2D
:1007180003FE40EA0E0021FA02F11444C1E600BFCC
:1007280070B54FF0FF0C4CF4E06C1CEA11541DBF7F
:100738001CEA135594EA0C0F95EA0C0F00F0DEF84A
:100748002C4481EA030621EA4C5123EA4C5350EA2F
:10075800013518BF52EA033541F4801143F4801380
:1007680038D0A0FB02CE4FF00005E1FB02E506F011
:100778000042E0FB03E54FF00006E1FB03569CF066
:10078800000F18BF4EF0010EA4F1FF04B6F5007F6C
:1007980064F5407404D25FEA4E0E6D4146EB0606DE
:1007A80042EAC62141EA55514FEAC52040EA5E5067
:1007B8004FEACE2EB4F1FD0C88BFBCF5E06F1ED811
:1007C800BEF1004F08BF5FEA500E50F1000041EB48
:1007D800045170BD06F0004646EA010140EA0200F5
:1007E80081EA0301B4EB5C04C2BFD4EB0C0541EA17
:1007F800045170BD41F480114FF0000E013C00F32C
:10080800AB8014F1360FDEBF002001F0004170BD4F
:10081800C4F10004203C35DA0C341BDC04F1140468
:10082800C4F1200500FA05F320FA04F001FA05F2F4
:1008380040EA020001F0004221F0004110EBD370C1
:1008480021FA04F642EB06015EEA430E08BF20EAED
:10085800D37070BDC4F10C04C4F1200500FA04F390
:1008680020FA05F001FA04F240EA020001F0004122
:1008780010EBD37041F100015EEA430E08BF20EA95
:10088800D37070BDC4F1200500FA05F24EEA020EDD
:1008980020FA04F301FA05F243EA020321FA04F00C
:1008A80001F0004121FA04F220EA020000EBD370C3
:1008B8005EEA430E08BF20EAD37070BD94F0000FC3
:1008C8000FD101F00046400041EB010111F4801FF7
:1008D80008BF013CF7D041EA060195F0000F18BFA8
:1008E800704703F00046520043EB030313F4801FE4
:1008F80008BF013DF7D043EA0603704794EA0C0F9E
:100908000CEA135518BF95EA0C0F0CD050EA4106B3
:1009180018BF52EA4306D1D181EA030101F0004130
:100928004FF0000070BD50EA410606BF1046194658
:1009380052EA430619D094EA0C0F02D150EA013664
:1009480013D195EA0C0F05D152EA03361CBF1046A5
:1009580019460AD181EA030101F0004141F0FE4144
:1009680041F470014FF0000070BD41F0FE4141F4C8
:10097800780170BD70B54FF0FF0C4CF4E06C1CEAC8
:1009880011541DBF1CEA135594EA0C0F95EA0C0F7D
:1009980000F0A7F8A4EB050481EA030E52EA033538
:1009A8004FEA013100F088804FEA03334FF0805559
:1009B80045EA131343EA12634FEA022245EA111586
:1009C80045EA10654FEA00260EF000419D4208BF37
:1009D800964244F1FD0404F5407402D25B084FEAE4
:1009E8003202B61A65EB03055B084FEA32024FF490
:1009F80080104FF4002CB6EB020E75EB030E22BFED
:100A0800B61A754640EA0C005B084FEA3202B6EBAC
:100A1800020E75EB030E22BFB61A754640EA5C005B
:100A28005B084FEA3202B6EB020E75EB030E22BFEB
:100A3800B61A754640EA9C005B084FEA3202B6EBEC
:100A4800020E75EB030E22BFB61A754640EADC00AB
:100A580055EA060E18D04FEA051545EA16754FEA0D
:100A680006164FEAC30343EA52734FEAC2025FEA2B
:100A78001C1CC0D111F4801F0BD141EA00014FF0BA
:100A880000004FF0004CB6E711F4801F04BF01438B
:100A98000020B4F1FD0C88BFBCF5E06F3FF6AFAEA7
:100AA800B5EB030C04BFB6EB020C5FEA500C50F137
:100AB800000041EB045170BD0EF0004E4EEA1131BA
:100AC80014EB5C04C2BFD4EB0C0541EA045170BDC1
:100AD80041F480114FF0000E013C90E645EA060E05
:100AE8008DE60CEA135594EA0C0F08BF95EA0C0F33
:100AF8003FF43BAF94EA0C0F0AD150EA01347FF47B
:100B080034AF95EA0C0F7FF425AF104619462CE751
:100B180095EA0C0F06D152EA03353FF4FDAE1046B4
:100B2800194622E750EA410618BF52EA43067FF405
:100B3800C5AE50EA41047FF40DAF52EA43057FF495
:100B4800EBAE12E74FF0FF3C06E000BF4FF0010CA0
:100B580002E000BF4FF0010C4DF804CD4FEA410C04
:100B68007FEA6C5C4FEA430C18BF7FEA6C5C1BD0D1
:100B780001B050EA410C0CBF52EA430C91EA030F52
:100B880002BF90EA020F0020704710F1000F91EAAF
:100B9800030F58BF994208BF90422CBFD8176FEA7D
:100BA800E37040F0010070474FEA410C7FEA6C5C4B
:100BB80002D150EA013C07D14FEA430C7FEA6C5C52
:100BC800D6D152EA033CD3D05DF8040B704700BF7E
:100BD8008446104662468C461946634600E000BFCC
:100BE80001B5FFF7B7FF002848BF10F1000F01BD9E
:100BF8004DF808EDFFF7F4FF0CBF012000205DF869
:100C080008FB00BF4DF808EDFFF7EAFF34BF0120ED
:100C180000205DF808FB00BF4DF808EDFFF7E0FF86
:100C280094BF012000205DF808FB00BF4DF808EDD7
:100C3800FFF7CEFF94BF012000205DF808FB00BF3E
:100C48004DF808EDFFF7C4FF34BF012000205DF820
:100C580008FB00BF4FEA410212F5001215D211D568
:100C68006FF47873B3EB625212D94FEAC12343F0A1
:100C7800004343EA505311F0004F23FA02F018BF23
:100C8800404270474FF00000704750EA013005D1EC
:100C980011F0004008BF6FF0004070474FF00000AF
:100CA800704700BF53B94AB9002908BF00281CBFC4
:100CB8004FF0FF314FF0FF3000F03CB882B0EC4607
:100CC8002DE9005000F01EF8DDF804E002B00CBC7D
:100CD800704700BF2DE9F041069C154606460F46B1
:100CE800984600F029F805FB01F300FB0838A5FB3E
:100CF8000023B21A434467EB0303C4E90023BDE8A9
:100D0800F08100BF2DE9F041069C904606460F464B
:100D18001D4600F05FF900FB05F5A0FB082308FB62
:100D28000155B21A2B4467EB0303C4E90023BDE85D
:100D3800F08100BF704700BF00292DE9F043C0F2E1
:100D4800A6800026002BC0F29C80884694469E46CA
:100D5800154604460F46002B3DD18A4259D9B2FAAE
:100D680082F33BB1C3F120029F4020FA02F29D407A
:100D780017439C40290C220CB7FBF1FEA8B201FBDB
:100D88001E7742EA074700FB0EF3BB420AD97F19D8
:100D98000EF1FF3280F00581BB4240F20281AEF1D4
:100DA800020E2F44FF1AA4B2B7FBF1F301FB13772D
:100DB80044EA074700FB03F0B84208D97F1903F15A
:100DC800FF3280F0F080B84240F2ED80023B43EA07
:100DD8000E43002203E08B420FD900221346341C35
:100DE80018BF012460424FF0000565EB45015840EB
:100DF800514000196941BDE8F083B3FA83F2002A33
:100E080040F086808B4202D3844500F2DB800123C8
:100E1800E5E712B90123B3FBF2F5B5FA85F000282E
:100E28003BD1781B4FEA154E1FFA85FC0122B0FB17
:100E3800FEF8210C0EFB180741EA07470CFB08F3E4
:100E4800BB4207D97F1908F1FF3102D2BB4200F239
:100E5800BD808846FF1AA4B2B7FBFEF30EFB1377DA
:100E680044EA07470CFB03FCBC4507D97F1903F18B
:100E7800FF3102D2BC4500F2A7800B4643EA084383
:100E8800ADE752426FEA060663EB43035DE7404273
:100E980061EB41014FF0FF3654E7C0F1200224FA1C
:100EA80002F107FA00F385404FEA154ED74019437F
:100EB800B7FBFEF20B0C0EFB12771FFA85FC43EA18
:100EC80007430CFB02F79F4204FA00F407D95B19A9
:100ED80002F1FF3074D29F4272D9023A2B44DF1BD1
:100EE80089B2B7FBFEF80EFB187341EA03430CFB0B
:100EF80008F79F4208D95B1908F1FF315CD29F427D
:100F08005AD9A8F102082B44D81B48EA02428EE7B6
:100F1800C2F120032CFA03F10EFA02FE20FA03F7BD
:100F280041EA0E0E08FA02F028FA03F14FEA1E45CC
:100F38003843B1FBF5F8030C05FB18111FFA8EF7BF
:100F480043EA014107FB08F38B420CFA02FC09D97A
:100F580011EB0E0108F1FF3930D28B422ED9A8F1DE
:100F680002087144C91A80B2B1FBF5F305FB1311ED
:100F780040EA014107FB03F78F4208D911EB0E0144
:100F880003F1FF3016D28F4214D9023B714443EA71
:100F98000843C91BA3FB0C89494509D305D0002286
:100FA8001DE79646FEE6134611E794404445F6D2FF
:100FB800013BF4E70346EAE78846A5E7C846D1E7D8
:100FC80002468CE713460AE7023B57E7A8F10208F6
:100FD8002F443FE72DE9F041002B44D18A421546C2
:100FE80004464FD9B2FA82F70E464FB1C7F1200333
:100FF800B94020FA03F602FA07F50E4300FA07F49F
:101008004FEA154E230CB6FBFEF0AFB20EFB106193
:1010180043EA014307FB00F1994209D95B1900F142
:10102800FF3280F0EC80994240F2E98002382B448C
:101038005A1AA4B2B2FBFEF30EFB132244EA024290
:1010480007FB03F7974208D9521903F1FF3180F0E3
:10105800D880974240F2D580023B43EA0040002600
:101068003146BDE8F0818B4247D8B3FA83F6002EAB
:1010780048D18B4202D3824200F2CD800120314612
:10108800BDE8F08112B90125B5FBF2F5B5FA85F88E
:10109800B8F1000F77D14A1B4FEA154EAFB20126BF
:1010A800B2FBFEF0230C0EFB102143EA014107FBC3
:1010B80000F38B4207D9491900F1FF3202D28B4263
:1010C80000F2BA801046C91AA4B2B1FBFEF30EFBB7
:1010D800131144EA014407FB03F7A74208D964192E
:1010E80003F1FF3280F08F80A74240F28C80023BF0
:1010F80043EA00403146BDE8F081002630463146DB
:10110800BDE8F081C6F1200422FA04F5B3402B4370
:1011180020FA04FC01FA06F721FA04F54FEA134E07
:101128004CEA0707B5FBFEF8390C0EFB18551FFAF9
:1011380083FC41EA05450CFB08F1A94202FA06F2D4
:1011480004D9ED1808F1FF3467D3A0466D1ABFB271
:10115800B5FBFEF40EFB145547EA05410CFB04FCF5
:101168008C4504D9C91804F1FF355CD32C4644EAF0
:101178000844CCEB0101A4FB0223994248D344D094
:10118800204600266CE7C8F1200401FA08F305FAA6
:1011980008F520FA04F7E1404FEA154E1F43B1FB6A
:1011A800FEF63A0C0EFB16111FFA85FC42EA0143C3
:1011B8000CFB06F29A4200FA08F407D95B1906F10B
:1011C800FF3137D29A4235D9023E2B449B1ABFB21F
:1011D800B3FBFEF00EFB103347EA03430CFB00F1B0
:1011E800994207D95B1900F1FF3221D299421FD9E0
:1011F80002382B445A1A40EA0646674650E710461A
:1012080016E70B4629E7134672E7B0409042B7D27B
:10121800601E002624E7304622E7A94295D9A8F1A6
:1012280002081D4492E78C45A0D9023C19449EE768
:101238001046DFE70E46C9E70238294443E700BFF6
:1012480007B5F8B9684600F01DFC08B10F4804E07E
:1012580001A800F017FC18B10D4803F07BFE11E05F
:101268000099CB1E072B03D90A4803F027FE09E093
:10127800094A01990093D05C11B103F0FBFC01E02D
:1012880003F006FD03B05DF804FB00BF9C9C00085A
:10129800AE9C0008D79C00082D9E000807B558B9D9
:1012A800684603F055FD0648BDF90010BDF9022057
:1012B800BDF9043003F002FE03B05DF804FB00BF83
:1012C800049D00081FB5F8B901A803F049FD9FED7A
:1012D800106ADDED016A9DED027ADDED037A0D48B5
:1012E80066EE866A27EE067A67EE867AFDEEE66A8D
:1012F800BDEEC77AFDEEE77A16EE901A17EE102AC1
:1013080017EE903A03F0DAFD05B05DF804FB00BF74
:1013180000008043379D000808B558B903F00EFD5A
:10132800054B0649002818BF19460548BDE808407E
:1013380003F0C4BD08BD00BF669D00086E9D00088F
:10134800779D000808B5032003F094FCFEE7000031
:1013580010B590B0012306930793002308934FF428
:10136800803302240E9306A84FF4E0130D940F93D4
:1013780001F0D6F808B1FFF7E5FF0F2301930390BA
:101388004FF480630590214601A80294049301F06C
:10139800B1FB04460028EED101F078FD00F0AAFC6C
:1013A800074B185D013403F031FC082CF8D10020FC
:1013B800014603F089FCFEF74DFF00F0CDFAFCE78B
:1013C8002D9E000808B501F073FDBDE80840FEF742
:1013D80011BF0000012808B50FD0022804D1074822
:1013E800BDE8084003F0B6BD4D20FEF7F7FEBDE8A6
:1013F80008400146024803F061BD08BD359E00085B
:101408006E9E0008F0B5164D16486B6987B043F418
:1014180080136B610024012640F2FF73032701A9A2
:101428000193029603940497059401F0C1FD6B693A
:1014380043F400336B6101A94FF480654FF090408D
:101448000195029603940497059401F0B1FD4FF0BD
:1014580090402946324601F075FE07B0F0BD00BF46
:1014680000100240000C004810B548B9054C204651
:1014780000F008FB21680448BDE8104003F01EBDD9
:1014880010BD00BF140E0020929E0008044B0022DD
:101498001A601A68824201D200BFFAE7704700BF9B
:1014A800000000200023834202DA00BF0133FAE77C
:1014B8007047000037B5684600F0E4FA01A800F06C
:1014C800F5FA14489DF800204FF4806101F03AFEC7
:1014D8000025019B5A5DD2B10E4C636923F0FF03CE
:1014E800134363616420FFF7DDFF4FF4807100222E
:1014F800204601F027FE4FF4FA70FFF7D3FF20468D
:101508004FF48071012201F01DFE0135E1E703B0BF
:1015180030BD00BF000C00480A460A2829D8DFE879
:1015280000F006090E1114171A1D2820240012486D
:10153800012101E010480221D2B201F003BE0E4899
:101548000421F9E70C480821F6E70B481021F3E7D6
:1015580009482021F0E708484021EDE706488021A6
:10156800EAE705484FF40071E6E703484FF4806165
:10157800E2E7024803F0EEBC000C0048A49E000815
:1015880010B5784C4FF480612046002201F0DAFD56
:1015980020464FF40071002201F0D4FD6420FFF7CB
:1015A80081FF012220464FF4807101F0CBFD4FF4FA
:1015B8009670FFF777FF00200146FFF7ADFF012087
:1015C8000021FFF7A9FF02200121FFF7A5FF032053
:1015D8000121FFF7A1FF04200121FFF79DFF05204E
:1015E8000121FFF799FF06200021FFF795FF002151
:1015F8000720FFF791FF6420FFF754FF20464FF4C0
:101608008071002201F09EFD4FF4FA70FFF74AFF47
:10161800012220464FF4807101F094FD0520FFF768
:1016280035FF00200121FFF777FF01200021FFF798
:1016380073FF02200021FFF76FFF03200021FFF74F
:101648006BFF04200021FFF767FF05200021FFF74B
:1016580063FF06200021FFF75FFF00210720FFF747
:101668005BFF6420FFF71EFF20464FF480710022C5
:1016780001F068FD4FF4FA70FFF714FF01222046CD
:101688004FF4807101F05EFD0520FFF7FFFE00209A
:101698000121FFF741FF01200146FFF73DFF02202E
:1016A8000121FFF739FF03200121FFF735FF04204F
:1016B8000021FFF731FF05200021FFF72DFF06204D
:1016C8000021FFF729FF00210720FFF725FF6420ED
:1016D800FFF7E8FE20464FF48071002201F032FD4A
:1016E8004FF4FA70FFF7DEFE012220464FF48071B6
:1016F80001F028FD0520FFF7C9FE00200146FFF78D
:101708000BFF01200146FFF707FF02200121FFF729
:1017180003FF03200021FFF7FFFE04200021FFF74D
:10172800FBFE05200021FFF7F7FE06200021FFF74A
:10173800F3FE00210720FFF7EFFE6420FFF7B2FE5B
:1017480020464FF48071002201F0FCFC4FF4FA703F
:10175800FFF7A8FE20464FF480710122BDE8104033
:1017680001F0F0BC000C004810B50446002850D128
:10177800224628484FF4806101F0E4FC22464FF4E9
:101788000071244801F0DEFC6420FFF78BFE012283
:101798004FF480711F4801F0D5FC4FF49670FFF7A5
:1017A80081FE20460121FFF7B7FE21460120FFF701
:1017B800B3FE21460220FFF7AFFE21460320FFF7C4
:1017C800ABFE21460420FFF7A7FE21460520FFF7C0
:1017D800A3FE21460620FFF79FFE21460720FFF7BC
:1017E8009BFE6420FFF75EFE22464FF48071094895
:1017F80001F0A8FC4FF4FA70FFF754FE05484FF4C7
:101808008071012201F09EFC0520BDE81040FFF721
:101818003DBE10BD000C004807B540B9684600F051
:1018280031F901A800F02EF9009B019A1A6003B063
:101838005DF804FB07B538B901A800F023F9019950
:1018480003480A6803F03AFB03B05DF804FB00BFE5
:10185800989F00082DE9F041154608B9334820E063
:1018680009B933481DE022B1324B4C1E1E680346AD
:101878000AE0314815E013F8012B002A4DD0324414
:10188800013C527812074BD5671C18462146F2D105
:101898001B78002B47D0294903F08EFC064610B967
:1018A8002748284937E0284903F0D8FB0446A0B95F
:1018B800224903F081FC064690B90C3555F80C1CFA
:1018C80089B355F8042C1AB1204803F0F7FAF4E765
:1018D80055F8083C01209847EFE74FF0000809E069
:1018E8004FF0020806E03046394603F0B7FB0446DD
:1018F80020B10C352F68002FF5D10AE0B8F1000FA0
:1019080003D01348394603F0D9FA6B684046984724
:1019180009E01048314603F0D1FA4FF0FF3402E0F5
:101928000029B8D1F9E72046BDE8F081E39F000817
:1019380004A000089C01002014A0000837A000089B
:101948003EA00008C4A000086EA0000873A000080C
:101958007FA0000884A0000873B53F4D2B6823B111
:101968003E4803F0ABFA00232B600DF1070000F0AE
:1019780032FA00286ED19DF80730082B01D07F2B52
:101988000DD1374C226852B1364803F097FA364ADF
:101998001368013B13602368013B23605AE0212B45
:1019A80015D1324B1B68002B54D0314C314920469D
:1019B80003F076FB2146304803F080FA204603F016
:1019C800CDFB274B1860284B04441C6025E02B4AAC
:1019D80012681A44527812F0970212D020490A6805
:1019E8004F2A9FBF204C20680370451C97BF0132C7
:1019F80007209DF80700256098BF0A6003F072FA77
:101A080028E00D2B26D1184B1A481B6818491A7064
:101A180003F046FB154B01221A600A20124C03F012
:101A280061FA0F4B20681E680246311A11444F298B
:101A38004FF0000102D802F8011BF6E719600C4EBE
:101A48000F4B226030461A685021FFF703FF01232D
:101A580026602B6002B070BD04000020B9A0000809
:101A6800580A0020C0A00008080000205C0A0020D6
:101A7800680E0020180E0020B5A300089C01002065
:101A88000C00002010B508490446002003F094FB20
:101A980030B100210A4603F05DFC2060002010BD33
:101AA8004FF0FF3010BD00BF37A0000810B5064941
:101AB8000446002003F080FB10B12060002010BD18
:101AC8004FF0FF3010BD00BF37A000082DE9F04FE0
:101AD800804689B092460D46002944D003AC00EBFD
:101AE800010906462746C8EB0A014E453144C8EBB2
:101AF800060325D013F00F0B03D11C4803F0DEF9C1
:101B08003C461B4B16F8011B1B681A480B445B78B4
:101B180013F0970F08BF2E2204F1010314BF2170A0
:101B2800227001931C4603F0C9F9BBF10F0F019B0A
:101B3800D9D100221A7039460F4803F0BFF9D2E70D
:101B4800002315F00F0523700DD01C46C5F11003B6
:101B58009C4204D2094803F0B1F90134F6E706487B
:101B6800394603F0ABF909B0BDE8F08FCAA0000808
:101B78009C010020D0A00008D6A00008DCA0000826
:101B8800012838B51DD002280E4C0F4D09D10F4839
:101B980003F0E0F921682A680D48BDE8384003F0F1
:101BA8008DB92046FFF76EFF10B92846FFF76AFF88
:101BB800206829680246FFF789FF23682A681344CA
:101BC800236038BD600A002010000020E0A0000853
:101BD80078A2000808B50A4B1A680AB9094A1A60B7
:101BE80018686B460144994206D903F0EBF80C23B8
:101BF80003604FF0FF3008BD014B196008BD00BFFE
:101C0800640A0020041C00204FF0FF3070474FF496
:101C18000053536000207047012070470020704730
:101C28001C4B70B51B68044698471B4B9C420646E4
:101C38002DD11A4BB3F80811B3F80C2192B212FA4D
:101C480081F101F07F01A3F80811B3F80A118A1A8B
:101C580092B2A3F80A210022A3F80C21B3F80811C4
:101C6800B3F80A2192B289B21C4682B18B187F2B35
:101C780088BFC1F1800295B2214486312A460648C0
:101C880002F0B7FD044802F0C2FDA4F80C5130463A
:101C980070BD00BFDC100020B80E0020680A0020CC
:101CA8002DE9F043044685B0E8B972B60F482146DD
:101CB800D0F81061D0F81451D0F81891D0F81C81E0
:101CC800D0F82071142200F5887003F0A9F862B6E4
:101CD8000748CDF80090CDF8048002972146324697
:101CE8002B4603F0EBF805B0BDE8F083680A002046
:101CF800C6A2000810B5174C2368002158680222B4
:101D08000B4603F02FF923680021986802220B463E
:101D180003F028F92368104CD86800210B460222EA
:101D280003F020F920460D49002202F07FF90C4902
:101D38000C4B4A691A6020460B4B4B6102F08BF939
:101D480020460A4902F04EFD2046BDE8104002F048
:101D580089B900BFC8050020B80E0020280100205E
:101D68005C000020DC100020291C0008680100200D
:101D7800F0B572B60A440E460F4F4FF492754543BC
:101D88007C198034A3889BB2C1EB060E83B19642BE
:101D98000ED063889BB21D4401337D5D06F8015B5C
:101DA80003F07F036380A388013B9BB2A380E3E732
:101DB80062B67046F0BD00BF680A002011460020D8
:101DC8001A46FFF7D5BF08B50122FFF7D1FFB0FAD1
:101DD80080F0400908BD014608B50020FFF7F3FF71
:101DE800003018BF012008BDF8B5374E4FF4927384
:101DF8007F2A03FB006306D9D3F810210132C3F808
:101E080010210120F8BDB3F80A4112FA84F47F2C9E
:101E180082BFD3F814410134C3F814414FF49273CC
:101E280003FB0063B3F80A4112FA84F47F2CF5D857
:101E380072B6D3F818411444C3F818410A449142C1
:101E48001CD04FF4927303FB006303F584756C8810
:101E5800A4B27F2C12D8B3F8064111F801EBA4B252
:101E680003F580772344013404F07F04FC8083F871
:101E780086E06B8801339BB26B80E0E74FF4927386
:101E880003FB0063B3F8082195B2B3F80A2192B2B4
:101E980053197F2B88BFC5F1800290B90B4F97F873
:101EA800FC31032B0DD194B2711938468631224684
:101EB80002F09FFC384602F0AAFC10B9024BA3F8C6
:101EC8000C4162B60020F8BD680A0020B80E002058
:101ED800F8B51D461446D718BC4226460FD03378AD
:101EE8000A2B04F1010404D1002006490122FFF75E
:101EF8007BFF314601220020FFF776FFECE72846FA
:101F0800F8BD00BF3CA00008F0B51A4D4FF492731D
:101F180003FB0053B3F8844012FA84F47F2C06D9EB
:101F2800D3F81C210132C3F81C210120F0BDD3F8DD
:101F380020411444C3F820410A44914217D04FF479
:101F4800927444432F1911F801EBB7F880309BB213
:101F58001C44013303F07F03A7F88030B7F88430BE
:101F680005F804E001339BB2A7F88430E5E70020C8
:101F7800F0BD00BF680A0020014801F00CBD00BF99
:101F8800E010002070B51B4B8AB005466A4603F185
:101F9800200618685968144603C40833B342224619
:101FA800F7D118689B8820602946A38011F8022B76
:101FB8006B7843EA02230022144613F47C450E484A
:101FC80014D09B01C3F315030AAD05EB134515F8AF
:101FD800295C8554A01D072881BFA01E0C78844069
:101FE800234388BF013101320446E6E785540AB02D
:101FF80070BD00BF70A300088C0B002038B50446E4
:1020080000B301B38D798A884368102D05D0202D3F
:1020180005D0082D05D1D05C38BDD05A38BDD05870
:1020280038BD0868FFF7AEFF29460246074802F0A8
:1020380045FF2068FFF7A6FF0146054802F03EFF6E
:10204800002038BD38BD084638BD00BF96A300083B
:10205800B8A3000838B50546F8B1F1B18C7988887D
:102068006B68102C05D0202C05D0082C06D1C25442
:1020780002E0C25200E0C250002038BD0868FFF7F5
:1020880081FF21460246064802F018FF2868FFF73C
:1020980079FF0146034802F011FF012038BD00BF57
:1020A80096A30008B8A3000830B5044685B0C8B1A7
:1020B800437901259D4003790068D940013D0D40D1
:1020C800FFF760FF6279084B01460848012A98BF6C
:1020D80003468DE80C002379029305482A462B46CF
:1020E80002F0ECFE05B030BDCBA30008D1A3000878
:1020F800D7A30008F7B50F4616461D46044610B389
:102108000068FFF73FFFA3790093A3883B4401468B
:1021180001930E483246334602F0D0FEA7685FB1FD
:102128008DB10025A3899D4207EBC50005D2314634
:10213800FFF7BAFF0135F5E72DB10A2003B0BDE876
:10214800F04002F0CFBE03B0F0BD00BF00A400080D
:102158002DE9F04188460446E8B10068FFF712FF10
:10216800626801460D4802F0A9FEA7680FB9BDE8EC
:10217800F0810025A3899D4207EB05160BD2314655
:102188002046FFF73BFF6168024643463046FFF7AB
:10219800B1FF0135EEE7BDE8F08100BF3BA40008C0
:1021A80038B50546092002F09DFE08242868A0B12C
:1021B800FFF7E8FE0146094802F080FE2B69044457
:1021C8004BB1074802F07AFE0444462C03D905486F
:1021D80002F074FE08241035E8E738BDB5A30008FE
:1021E800D4A3000863A4000870B5064609200D466C
:1021F80002F078FE013D103608246B1C18D056F802
:10220800100CFFF7BFFE01460A4802F057FE2044B3
:10221800C4B255B1084802F051FE2044C4B2462C5D
:1022280003D9064802F04AFE0824013D1036E4E7C7
:1022380070BD00BFB5A30008D4A3000863A40008BC
:10224800F0B5022885B031D103A8FFF72FFC38B1CB
:10225800884802F07FFE8848FFF7A2FF874822E0FF
:10226800854C206848B9206890B90399844802F0E1
:1022780025FE8148FFF794FFF9E0039DFFF782FEF2
:102288000146284602F0EAFE0028ECD01034E8E7C0
:10229800FFF778FE01467B4802F010FEA068A1898E
:1022A800FFF7A2FF784802F055FEE0E06846FFF726
:1022B800FDFB18B1754802F04DFE14E06E4C206825
:1022C80030B923689BB90099714802F0F7FD0AE01C
:1022D800009DFFF757FE0146284602F0BFFE002882
:1022E800EFD01034EBE76448FFF75AFFDAE701A8AC
:1022F800FFF7DCFB10B12046002117E0A568A7898D
:10230800019E57B12868FFF73DFE0146304602F0AE
:10231800A5FE013F68B11035F2E730465D4902F08D
:102328009DFE002840F09A8020460121FFF710FF0B
:102338009DE002A8FFF7BAFB002840F083800298CE
:10234800554902F08BFE48B903A8FFF79BFB08B17B
:102358005248A8E728466168039A7BE0AE6830686F
:1023680010B937685FB946E0029FFFF70BFE0146D8
:10237800384602F073FE0028F3D00836EFE703A8CA
:10238800FFF780FB28B12868FFF7FCFD01464448A9
:1023980040E029462046FFF731FE727996F804E0BE
:1023A80003990123934020FA0EF7013B03FA0EF23A
:1023B8001F400B4003FA0EF320EA02021A43294693
:1023C8002046FFF747FE2068FFF7DCFD0146354849
:1023D80002F074FD2868FFF7D5FD0146314802F088
:1023E8006DFD3068FFF7CEFD3A460146039B2E4847
:1023F80002F064FD3BE002F0E5FC394607603A462E
:10240800029802F0A7FF039002F0DCFC036823B1F6
:102418002648029902F052FD29E0039A29462046EF
:10242800FFF718FE2068FFF7ADFD01461D4802F0D2
:1024380045FD2868FFF7A6FD039A01461C4802F0EF
:102448003DFD14E029462046FFF7D8FD616803905A
:10245800024628460123FFF74DFE08E02068FFF7F3
:1024680091FD31460246134802F028FD16E705B0F3
:10247800F0BD00BF66A40008FC3F010879A600086B
:10248800CEA6000809A7000897A700082EA70008ED
:102498005DA7000864A80008D6A70008DAA7000806
:1024A800F9A7000824A8000828A8000839A80008E7
:1024B80057A8000899A700081549D1F8883043F4AF
:1024C8007003C1F88830134B1A6842F001021A6091
:1024D8005868114A02405A601A6822F0847222F43D
:1024E80080321A601A6822F480221A605A6822F42C
:1024F800FE025A60DA6A22F00F02DA62186B074AA3
:1025080002401A6300229A604FF000638B607047A4
:1025180000ED00E0001002400CC07FF8CCFC00FF8A
:10252800F8B50368DB07044604D423689F0700F165
:10253800C68057E1C14D6B6803F00C03042B07D02C
:102548006B6803F00C03082B27D16B68DE0324D5D6
:102558004FF4003292FAA2F3B3FA83F343F0200364
:10256800C3F34213012B01D1296804E092FAA2F2C5
:10257800B2FA82F2696A4FF4003393FAA3F3B3FA1A
:1025880083F3012203F01F0302FA03F30B42CCD0BA
:1025980063689342C9D00120F8BDA94E0023337067
:1025A80000F08EFC07464FF4003292FAA2F3B3FA19
:1025B80083F343F02003C3F34213012B01D12968AD
:1025C80004E092FAA2F2B2FA82F2696A4FF4003396
:1025D80093FAA3F3B3FA83F3012203F01F0302FA79
:1025E80003F30B4208D000F06BFC41F28833C01BA8
:1025F8009842D8D90320F8BD23793370EB6A23F0C9
:102608000F02A3681343EB626368012B2BD100F020
:1026180057FC06464FF4003292FAA2F3B3FA83F35A
:1026280043F02003C3F34213012B01D1296804E0CE
:1026380092FAA2F2B2FA82F2696A4FF4003393FA7C
:10264800A3F3B3FA83F3012203F01F0302FA03F39F
:102658000B427FF46AAF00F033FC41F28833801BF1
:102668009842D7D9C6E700F02BFC06464FF4003253
:1026780092FAA2F3B3FA83F343F02003C3F34213AD
:10268800012B01D1296804E092FAA2F2B2FA82F28F
:10269800696A4FF4003393FAA3F3B3FA83F3012280
:1026A80003F01F0302FA03F30B423FF43EAF00F0BE
:1026B80007FC41F28833801B9842D7D99AE75F4DCF
:1026C8006B6813F00C0F07D06B6803F00C03082B32
:1026D80025D16B68D80322D4022292FAA2F3B3FA66
:1026E80083F343F02003C3F34213012B01D129687C
:1026F80004E092FAA2F2B2FA82F2696A022393FA29
:10270800A3F3B3FA83F3012203F01F0302FA03F3DE
:102718000B4230D0236993427FF43DAF2BE022690E
:10272800484BBAB301221A6000F0CAFB06460222DF
:1027380092FAA2F3B3FA83F343F02003C3F34213EC
:10274800012B01D1296804E092FAA2F2B2FA82F2CE
:10275800696A022393FAA3F3B3FA83F3012203F01D
:102768001F0302FA03F30B4205D100F0A9FB801BFB
:102778006428DCD93EE72A68F82393FAA3F3B3FA6E
:1027880083F36169DBB2994022F0F80241EA02035F
:102798002B6027E01A6000F093FB0646022292FAAB
:1027A800A2F3B3FA83F343F02003C3F34213012BDC
:1027B80001D1296804E092FAA2F2B2FA82F2696AB7
:1027C800022393FAA3F3B3FA83F3012203F01F035E
:1027D80002FA03F30B4205D000F072FB801B642859
:1027E800DCD907E72368190704D423685A0740F19E
:1027F800A7804AE0A269114D134B3AB301221A602F
:1028080000F05EFB0646022393FAA3F2B2FA82F2C4
:1028180093FAA3F2B2FA82F2696A93FAA3F3B3FACB
:1028280083F3012203F01F0302FA03F30B42DCD106
:1028380000F046FB801B6428E5D9DBE60010024067
:102848000210024000004242800442421A6000F036
:1028580037FB0646022393FAA3F2B2FA82F293FAFE
:10286800A3F2B2FA82F2696A93FAA3F3B3FA83F392
:10287800012203F01F0302FA03F30B42B5D000F064
:102888001FFB801B6428E5D9B4E6974D974AEB698E
:1028980043F08053EB61136843F48073136000F0D6
:1028A8000FFB0646914B1B68DB054DD52B6A23F0C1
:1028B80005032B6200F004FB0646022393FAA3F2F9
:1028C800B2FA82F293FAA3F2B2FA82F242F040022A
:1028D800C2F342129A420CBF296A696A93FAA3F3B7
:1028E800B3FA83F3012203F01F0302FA03F30B4246
:1028F80030D12B6AE26823F005031343012A2B62C7
:1029080038D100F0DDFA0646022393FAA3F2B2FAB0
:1029180082F293FAA3F2B2FA82F242F04002C2F3D0
:1029280042129A420CBF296A696A93FAA3F3B3FA6E
:1029380083F3012203F01F0302FA03F30B4211D0C1
:10294800E269002A3DD18BE000F0BAFA801B6428C6
:10295800A8D94FE600F0B4FA41F28833801B9842B8
:10296800ABD947E600F0ACFA41F28833801B9842B5
:10297800CAD93FE600F0A4FA0646022393FAA3F266
:10298800B2FA82F293FAA3F2B2FA82F242F0400269
:10299800C2F342129A420CBF296A696A93FAA3F3F6
:1029A800B3FA83F3012203F01F0302FA03F30B4285
:1029B800C6D000F085FA41F28833801B9842DCD9F2
:1029C80018E6494D6B6803F00C03082B3FF4E3ADA0
:1029D800474E0023022A33605CD100F071FA0746A3
:1029E8004FF0007292FAA2F3B3FA83F343F0200394
:1029F800C3F34213012B35D12A684FF0007393FAC1
:102A0800A3F3B3FA83F3012103F01F0301FA03F3DD
:102A180013422DD1206A626A6B68024323F474134F
:102A280013436B60316000F04BFA04464FF00072BC
:102A380092FAA2F3B3FA83F343F02003C3F34213E9
:102A4800012B1BD129684FF0007393FAA3F3B3FA53
:102A580083F3012203F01F0302FA03F30B4213D09E
:102A68000020F8BD92FAA2F2B2FA82F26A6AC4E7CA
:102A780000F026FAC01B6428B2D9BBE592FAA2F28C
:102A8800B2FA82F2696ADEE700F01AFA001B6428DB
:102A9800CCD9AFE500F014FA04464FF0007292FA70
:102AA800A2F3B3FA83F343F02003C3F34213012BD9
:102AB80001D1296804E092FAA2F2B2FA82F2696AB4
:102AC8004FF0007393FAA3F3B3FA83F3012203F0F0
:102AD8001F0302FA03F30B42C2D000F0F1F9001B06
:102AE8006428DAD986E500BF001002400070004073
:102AF80060004242B04AF8B5136803F007039942F0
:102B080004460E4640F2A980136823F007030B43DE
:102B18001360136803F007038B4201D00120F8BD4E
:102B280001688F0741BFA548436823F0F002A368F6
:102B380044BF13434360CE070BD421684D0740F1CF
:102B48002B819E48436823F4E062E36813434360A3
:102B580022E16268994D012A15D14FF4003191FAAA
:102B6800A1F3B3FA83F343F02003C3F34213012B19
:102B780001D1286804E091FAA1F1B1FA81F1686AFB
:102B88004FF400332AE0022A15D14FF0007191FA70
:102B9800A1F3B3FA83F343F02003C3F34213012BE9
:102BA80001D1286804E091FAA1F1B1FA81F1686ACB
:102BB8004FF0007312E0022191FAA1F3B3FA83F304
:102BC80043F02003C3F34213012B01D1286804E02A
:102BD80091FAA1F1B1FA81F1686A022393FAA3F399
:102BE800B3FA83F3012103F01F0301FA03F303424D
:102BF80094D06B6823F003031A436A6000F060F90D
:102C08006368012B06460DD16B6803F00C03042B97
:102C180093D000F055F941F28833801B9842F3D9DC
:102C28000320F8BD022B13D16B6803F00C03082BAB
:102C380083D000F045F941F28833801B9842F3D9DC
:102C4800EEE700F03DF941F28833801B9842E7D85F
:102C58006B6813F00C0FF4D16FE70168880741BF68
:102C68005648436823F0F002A36844BF1343436007
:102C7800CA070CD4504A136823F007033343136080
:102C8800136803F00703B3427FF448AF55E762685F
:102C98004A4D012A15D14FF4003191FAA1F3B3FA44
:102CA80083F343F02003C3F34213012B01D12868B7
:102CB80004E091FAA1F1B1FA81F1686A4FF40033A6
:102CC8002AE0022A15D14FF0007191FAA1F3B3FA64
:102CD80083F343F02003C3F34213012B01D1286887
:102CE80004E091FAA1F1B1FA81F1686A4FF000733A
:102CF80012E0022191FAA1F3B3FA83F343F020031F
:102D0800C3F34213012B01D1286804E091FAA1F121
:102D1800B1FA81F1686A022393FAA3F3B3FA83F351
:102D2800012103F01F0301FA03F303423FF4F6AE57
:102D38006B6823F003031A436A6000F0C1F8636804
:102D4800012B07460CD16B6803F00C03042B91D0C0
:102D580000F0B6F841F28833C01B9842F3D95FE718
:102D6800022B14D16B6803F00C03082B82D000F0FF
:102D7800A7F841F28833C01B9842F3D950E700F016
:102D88009FF841F28833C01B98423FF649AF6B6801
:102D980013F00C0FF3D16DE70B0741BF074A216908
:102DA800536823F4605344BF43EAC10353600F20C0
:102DB80000F059F80020F8BD002002400010024041
:102DC800154910B54C6804F00C03082B21D14FF4B9
:102DD800701393FAA3F3B3FA83F304F47012DBB21B
:102DE80022FA03F30D4AC96AD25C0F2393FAA3F3BC
:102DF800B3FA83F301F00F01DBB221FA03F30849B8
:102E0800C85CE30352BF0748074BB3FBF0F05043DD
:102E180010BD054810BD00BF00100240688E0108B3
:102E2800588E010800093D0000127A0008B5FFF726
:102E3800C7FF094B5A68F02393FAA3F3B3FA83F355
:102E480002F0F002DBB222FA03F3044AD35CD84062
:102E5800034B186008BD00BF00100240488E0108EF
:102E680014000020704710B50446FFF7DFFF4FF449
:102E78007A73B0FBF3F000F085F84FF0FF3021468D
:102E8800002200F043F8002010BD0000074A08B5F2
:102E9800136843F010031360032000F025F80F2097
:102EA800FFF7E1FFFFF7DEFF002008BD002002402A
:102EB800024A136801331360704700BFA00B00205B
:102EC800014B1868704700BFA00B002013B5019094
:102ED800FFF7F6FF0446FFF7F3FF019B001B98423C
:102EE800F9D302B010BD0000074AD36823F4E063A9
:102EF8001B041B0C43F0BF6343F4003300F00700CE
:102F080043EA0023D360704700ED00E0154BDB680F
:102F1800C3F3022370B5C3F107051C1D042D28BF98
:102F28000425062C8CBF033B0023012404FA03F676
:102F3800AC40013C013E214099403240002842EA21
:102F480001024FEA0212AFBF00F1604000F00F002B
:102F5800054BD2B2A5BF00F56140D2B21A5480F831
:102F6800002370BD00ED00E014ED00E041090123ED
:102F780000F01F00024A834042F82130704700BF2A
:102F880000E100E00138B0F1807F3FBF064B074AFF
:102F98005860F0213FBF82F8231000200722986074
:102FA80034BF1A600120704710E000E000ED00E037
:102FB8002DE9F0410F68002301229A4002EA070533
:102FC800954240F0AC804C6824F0100CBCF1020F24
:102FD80014D14FEAD30E00EB8E0E03F00706DEF88D
:102FE8002020B6004FF00F0808FA06F822EA080871
:102FF8000A69B24048EA0202CEF820204FEA430E9E
:103008000322066802FA0EF2D24302EA060804F026
:10301800030606FA0EF60CF1FF3C48EA0606BCF178
:10302800010F066011D8866802EA060CCE6806FA17
:103038000EF64CEA06068660466826EA050CC4F3D6
:1030480000169E404CEA06064660C66802EA060C70
:103058008A6802FA0EF64CEA0602C260E2005ED501
:10306800324EB26942F00102B26123F0030606F162
:10307800804606F5803603F0030CD6F808E04FEAE0
:103088008C0C0F2202FA0CF2B0F1904F2EEA020ECD
:1030980015D0274A904214D002F58062904212D08F
:1030A80002F58062904210D002F5806290420ED004
:1030B80002F5806290420CBF0522062208E0002239
:1030C80006E0012204E0022202E0032200E00422DA
:1030D80002FA0CF242EA0E02B260164A16686FEA69
:1030E800050E14F4803F14BF2E430EEA0606166040
:1030F800566814F4003F14BF2E430EEA06065660C5
:10310800966814F4801F14BF2E430EEA06069660D4
:10311800D668A40254BF0EEA06053543D5600133CC
:10312800102B7FF449AFBDE8F08100BF00100240CA
:1031380000040048000401400369194214BF01203B
:10314800002070470AB10183704741837047436983
:1031580059404161704738B50446002846D00223DB
:1031680080F8413101F07EFB656804F129020021F5
:10317800A94202F11C024FF000030ED0012002F810
:103188001D1C02F81C0C02F81A3C42F8113C42F8CB
:103198000D3C42F8093C0144EAE704F1B502AB42B0
:1031A80002F11C024FF000000DD002F81D3C02F89D
:1031B8001C0C02F81A0C42F8110C42F80D0C42F8DB
:1031C800090C0133EBE723680122A3F840204FF4F0
:1031D8003D42A3F84000A3F84400A3F85000A3F828
:1031E800402084F8240084F8410138BD012038BD0E
:1031F80008B5012100F019FF002008BD90F8403102
:10320800012B0FD0012380F8403121B903688022B7
:10321800A3F84C2001E080F82410002380F8403106
:103228001846704702207047F0B5CCB214F0800FF2
:1032380001F07F064FF01C0515BF05FB060105FBD5
:1032480001012831B431E4090E704C70CB7090F84C
:103258004031CA60012B00F08181012380F84031A0
:10326800CC780A780368032C2FD8DFE804F0022210
:103278000D1712B233F82240A4B224F4EC4424F01F
:10328800700444F400741EE012B233F8224024F4AF
:10329800EC4424F070042404240C14E012B233F833
:1032A8002240A4B224F4EC4424F0700444F4C06432
:1032B80009E012B233F82240A4B224F4EC4424F01A
:1032C800700444F4806423F822400A7816B242F469
:1032D800004533F8264024F0F002120545F0800539
:1032E800120D2A4323F826208C7A0A78002C75D1EF
:1032F8004D788C8808263DB3B3F85050ADB216FB14
:10330800025203EB420264086400C2F800440C78DD
:1033180033F8242052060BD533F8242022F0F0028B
:103328001205120D42F4004242F0C00223F8242094
:10333800097833F8212022F4E04222F040021204F6
:10334800120C82F02002FEE0B3F85070BFB216FBF8
:103358000272043203F580656408640045F812407F
:10336800B3F850200C7892B216FB0422CE683E2E99
:1033780002F106020BD9C6F34F14F70604BF04F195
:10338800FF34A4B26FEAC4646FEA544406E0C6F39B
:103398004F04F60744BF0134A4B2A402A4B245F80E
:1033A80012400C7833F8242052040BD533F824202B
:1033B80022F0F0021205120D42F4404242F080025F
:1033C80023F82420097833F8212022F4804222F0BF
:1033D80070021204120C82F44052B4E012B203F5E7
:1033E800806533F8224024F4F8742405240D44F44D
:1033F800014444F0800423F82240B3F850600C786C
:103408000822B6B212FB0466CC886408640045F84A
:103418001640B3F850400E78A4B212FB06420C894D
:1034280004326408640045F812400C784A7824B2E3
:10343800002A46D133F8242057040BD533F824202A
:1034480022F0F0021205120D42F4404242F08002CE
:1034580023F824200C7833F8242056060BD533F8AB
:10346800242022F0F0021205120D42F4004242F02C
:10347800C00223F824200C7833F8242022F0F0022C
:103488001205120D42F4004242F0C00223F8242033
:103498000C7833F8242022F4804222F070021204BF
:1034A800120C82F4405242F4004242F0800223F8A7
:1034B8002420097833F8212022F0C0021205120DC9
:1034C80041E033F8242055040BD533F8242022F0AA
:1034D800F0021205120D42F4404242F0800223F835
:1034E80024200C7833F8242052060BD533F82420F6
:1034F80022F0F0021205120D42F4004242F0C0021E
:1035080023F824200C7833F8242022F0F002120546
:10351800120D42F4404242F0800223F824200C7835
:1035280033F8242022F0C0021205120D42F40042A2
:1035380042F0800223F82420097833F8212022F071
:10354800F0029204920C42F4004242F0800223F806
:103558002120002380F840311846F0BD0220F0BD3C
:10356800CBB213F0800F30B54FF01C0201F07F048E
:1035780015BF02FB040102FB01012831B431DB094C
:103588000C704B7090F84031012B00F0BF80012384
:1035980080F840310A788D7A4C78036812B21DBBE6
:1035A80084B133F8224064065BD533F8224024F016
:1035B800F0042405240D44F4004444F0C00423F826
:1035C80022404EE033F82240650440F18D8033F804
:1035D800224024F0F0042405240D44F4404444F02F
:1035E800800423F822407FE0002C42D133F82240A7
:1035F80064040BD533F8224024F0F0042405240D8C
:1036080044F4404444F0800423F822400C7833F812
:10361800242055060BD533F8242022F0F002120599
:10362800120D42F4004242F0C00223F824200C7824
:1036380033F8242022F0F0021205120D42F4004261
:1036480042F0C00223F824200C7833F8242022F01A
:10365800F0029204920C42F4004242F0800223F8F5
:103668002420097833F8212022F0C0021205120D17
:1036780041E033F8224064040BD533F8224024F0AB
:10368800F0042405240D44F4404444F0800423F855
:1036980022400C7833F8242052060BD533F8242026
:1036A80022F0F0021205120D42F4004242F0C0026C
:1036B80023F824200C7833F8242022F0F002120595
:1036C800120D42F4404242F0800223F824200C7884
:1036D80033F8242022F0C0021205120D42F40042F1
:1036E80042F0800223F82420097833F8212022F0C0
:1036F800F0029204920C42F4004242F0800223F855
:103708002120002380F84031184630BD022030BD0A
:1037180070B501F07F011C2404FB010404F1C0050D
:103728006A600022AB60C4F8CC2084F8B52084F825
:10373800B41090F84031012B62D0012380F8403159
:10374800AB68D4F8C040A34298BFAA604FF01C02EF
:1037580002FB010284BF1B1BAB6092F8BE5088BFFE
:103768002346B03204680DB1557915BBB4F85050F2
:103778001279ADB205EBC2053E2B04F5806605F162
:1037880006050BD9C3F34F12DB0604BF02F1FF3263
:1037980092B26FEAC2626FEA524206E0C3F34F0286
:1037A800DB0744BF013292B2920292B246F815206A
:1037B8000CE0012D01BFB4F850501279ADB205EB01
:1037C800C20204BF04EB4202C2F80C341C2303FB00
:1037D800010191F8B42034F8223023F4804323F017
:1037E80070031B041B0C83F4405343F4004343F061
:1037F800800324F82230002380F84031184670BD39
:10380800022070BD01F07F011C2303FB0100B0F80A
:10381800CC007047F8B501F07F061C2101FB0601BA
:10382800044601F138008A634360002201230A64D8
:1038380081F8293081F8286094F840519D4200F0C1
:10384800A88084F840314B6B45681C2707FB064766
:103858009D4288BFED1A97F8321086BF45601D4615
:103868004260ABB207F1280289B9B96B9288206827
:1038780000F0B3FB216897F82830B1F8502092B2D5
:1038880002EBC30301EB4303C3F8045467E0527827
:1038980020681ABBB0F8501097F8282089B201EBBD
:1038A800C2013E2D00F5806701F106010BD9C5F371
:1038B8004F12ED0604BF02F1FF3292B26FEAC26204
:1038C8006FEA524206E0C5F34F02ED0744BF0132EA
:1038D80092B2920292B247F811200DE0012A01BF7C
:1038E800B0F8502097F8281092B202EBC10204BF3A
:1038F80000EB4202C2F80C541C2505FB064202F1FB
:10390800280192F8287030F8277005FB06457F06D5
:1039180054BFCA88128EA96B00F05FFB95F8293056
:10392800226863B995F8281032F8213023F0F003A3
:103938001B051B0D43F4004343F0C0030DE0012BAE
:103948000DD195F8281032F8213023F0F0031B052B
:103958001B0D43F4404343F0800322F821301C231D
:1039680003FB0646226896F8281032F8213023F423
:10397800E04323F040031B041B0C83F0300343F4A3
:10398800004343F08003002022F8213084F84001EE
:10399800F8BD0220F8BD0368B3F844301BB2002B11
:1039A800F7B5044611DB2368B3F84420520540F10B
:1039B800E7814FF6FF322046A3F8442000F0BCFF11
:1039C80020460021FFF71AFCDAE10023ADF80630A3
:1039D8002068B0F844309BB21904ADF80430E2D541
:1039E800BDF8045015F00F0540F0B780BDF804107D
:1039F800038801F0100189B259BB23F4E14323F095
:103A080070031B041B0C0380B0F8503094F8282076
:103A18009BB203EBC20300EB4300A26BD0F8043463
:103A2800C3F3090323641344A363204600F078FF1B
:103A380094F82430002BCBD0E26B002AC8D194F83C
:103A48002430216843F08003A1F84C3084F8242006
:103A5800BEE79BB2ADF80630BDF806301F051FD58E
:103A6800B0F8503094F8B4209BB203EBC20300EBDB
:103A78004303B4F8B820D3F80C34C3F30903C4F8EB
:103A8800CC3004F5A27100F0BFFA2268138823F045
:103A980070031B051B0D1380204600F031FF97E7CC
:103AA800BDF806301BB2002B92DA038823F07003AE
:103AB8001B051B0D0380B0F8503094F8B4209BB25E
:103AC80003EBC20300EB4303D3F80C34C3F309033D
:103AD800C4F8CC3063B1B4F8B820D4F8C41000F0FE
:103AE80093FAD4F8C420D4F8CC301344C4F8C430C2
:103AF8002046002100F00BFF2268D4F8C050B2F82D
:103B080050103E2D89B202F5806001F106010BD9F3
:103B1800C5F34F13EE0604BF03F1FF339BB26FEA00
:103B2800C3636FEA534306E0C5F34F03ED0744BF91
:103B380001339BB29B029BB240F81130138823F4E7
:103B4800804323F070031B041B0C83F4405343F49D
:103B5800004343F0800313803AE72FB230F8273050
:103B68009BB2ADF80630BDF806301BB2002B80F2D0
:103B7800848030F8273023F070031B051C2202FBD9
:103B880005421B0D20F8273002F1B80C9CF80630CE
:103B980002F1B00EB3B9B0F850309EF804109BB2E1
:103BA80003EBC10300EB4303D3F80C64C6F3090627
:103BB800002E40D0D2F8C410BEF80820334600F0DA
:103BC80023FA38E09EF8046033B230F82330B0F8B6
:103BD800501013F4804F89B24FF0080313FB0613FB
:103BE80000EB430309D0D3F80464C6F3090686B191
:103BF800D2F8C410BEF80A2008E0D3F80C64C6F363
:103C0800090636B1D2F8C410BCF80420334600F0D7
:103C1800FBF91C2303FB0543226893F8B41032F820
:103C2800213023F0F0031B051B0D43F4004343F040
:103C3800C00322F821301C2101FB0541D1F8CC300A
:103C4800D1F8C4203344C1F8CC30D1F8C83032445C
:103C5800C1F8C4201BB1D1F8C000864208D21C2389
:103C680003FB0543204693F8B41000F050FE04E02F
:103C7800204691F8B410FFF74BFDBDF80630180642
:103C88007FF5A6AE206830F8273023F4E14323F00F
:103C980070031B041B0C1C2202FB054220F8273072
:103CA80092F8323002F12806A3B9B0F8503092F8F1
:103CB80028109BB203EBC10300EB4303D3F8043491
:103CC800C3F309031364002B3AD0916BB28800F058
:103CD80084F935E092F828703BB230F82330B0F818
:103CE800501013F0400F89B24FF0080313FB07136D
:103CF80000EB430308D0D3F80434C3F30903136477
:103D080063B1916BF28807E0D3F80C34C3F309036D
:103D180013641BB1916B128E00F05FF91C2303FB37
:103D28000543226893F8281032F8213023F0F00375
:103D38001B051B0D43F4404343F0800322F8213058
:103D480021681C2303FB0545B1F8502095F828305D
:103D580092B202EBC30301EB43032046D3F80424D9
:103D6800AB6B95F82810C2F309022A641A44EB6B6E
:103D7800AA6313B900F0D4FD2AE6FFF74BFD27E646
:103D88002368B3F84420520444BF4BF6FF72A3F8EB
:103D98004420B3F84420970444BF4DF6FF72A3F8BB
:103DA8004420B3F84420D60413D5B3F8402022F0B9
:103DB80004021204120CA3F840204FF43D42A3F869
:103DC8004020204600F0C6FD23684EF6FF72A3F897
:103DD80044202368B3F84420150518D54FF2FF7224
:103DE800A3F84420B3F8402092B242F00802A3F8A6
:103DF8004020B3F8402092B242F00402A3F84020D9
:103E0800B3F84430D80402D4204600F0A2FD236859
:103E1800B3F84420910506D54FF6FF52A3F8442085
:103E2800204600F085FD2368B3F84420D20544BF3E
:103E38004FF6FF62A3F8442003B0F0BD90F840317C
:103E4800012B10B549D0CCB201231C2280F8403197
:103E580014F0800F01F07F0315BF02FB030202FB81
:103E680001022832B43201219170D9B2E3091170EC
:103E78005370026879B913889BB223F4804323F006
:103E8800400383F4805383F0100343F4004343F06A
:103E9800800313801CE009B253B132F8213023F4B7
:103EA800E04323F040031B041B0C83F0100309E0DC
:103EB80032F8213023F4804323F070031B041B0CD9
:103EC80083F4805343F4004343F0800322F8213005
:103ED800002380F84031184610BD022010BDCBB237
:103EE80013F0800F10B54FF01C0201F07F0415BFCE
:103EF80002FB040102FB01012831B431DB09002275
:103F08008A700C704B7090F84031012B49D0012316
:103F180080F840310C784B78026824B2DBB132F873
:103F280024305B060BD532F8243023F0F0031B0550
:103F38001B0D43F4004343F0C00322F824300978F2
:103F480032F8213023F4E04323F040031B041B0C18
:103F580083F030031AE032F824305B040BD532F8D2
:103F6800243023F0F0031B051B0D43F4404343F0BA
:103F7800800322F82430097832F8213023F4804372
:103F880023F070031B041B0C83F4405343F40043D9
:103F980043F0800322F82130002380F8403118468E
:103FA80010BD022010BD11F0800F30B54FF01C0578
:103FB8001BBF01F07F0405FB040005FB010028304E
:103FC80008BFB43012B98272838004E00122C38032
:103FD8001B0C82720381002030BD013300F5806024
:103FE80030B55B1000EB420200249C4201F1020153
:103FF80009D011F8015C11F8020C40EA052022F8FA
:1040080024000134F1E730BD013300F5806010B5BC
:104018005B1000EB420200249C4205D052F82400B9
:1040280021F814000134F7E710BD704708B580B1D6
:10403800D0F8143213B10023C0F8143209B1C0F813
:104048001012012380F8FC31027000F085FC00207A
:1040580008BD022008BD19B1C0F81412002070472D
:104068000220704708B500F0B5FC002008BD08B56F
:10407800D0F814320BB9022008BD1B6898470028F5
:10408800F9D108BD08B5D0F814325B68984700200C
:1040980008BD38B5044600F50275284600F0C8F892
:1040A800012394F80812C4F8F431B4F80E32C4F8B5
:1040B800F83101F01F03012B0CD006D3022B0ED1CF
:1040C8002046294600F0F8F90EE02046294600F07F
:1040D800CFF809E02046294600F0D6F904E020464A
:1040E80001F0800100F08EFC002038BD10B50446B8
:1040F80009BBD0F8F431032B26D1D0F80C11D0F835
:10410800103199420AD9C91A8B4228BF0B46C0F808
:104118000C1111469AB200F06CFA15E0D0F814327E
:104128001B6923B190F8FC21032A00D19847204647
:1041380000F068FA08E0D0F814329B6923B190F8CF
:10414800FC21032A00D19847002010BD38B5044649
:10415800A9BBD0F8F431022B29D1C569036A9D4265
:1041680006D9EB1A1146C3619AB200F029FA1EE08B
:104178008269B2FBF3F503FB15255DB99A4209D3B1
:10418800D0F8F8319A4205D22A4600F019FAC4F854
:10419800F8510CE0D4F81432DB682BB194F8FC2108
:1041A800032A01D120469847204600F036FA94F8B1
:1041B8000032012B0CD1002384F8003208E0D0F83B
:1041C80014325B6923B190F8FC21032A00D1984787
:1041D800002038BD38B5002104460A464025402352
:1041E80000F0FFFB2B46C4F8105120468021002226
:1041F80000F0F7FB012384F8FC31D4F8183225626B
:104208002BB1D4F8143221795B68204698470020F6
:1042180038BD01740020704708B590F8FC21032AC6
:1042280004D1D0F81432DB6903B19847002008BDE7
:104238000B7803704B784370CA788B7803EB0223B2
:1042480043804A790B7903EB02238380CA798B79FF
:1042580003EB0223C380704710B58021044600F0A9
:10426800D1FB20460021BDE8104000F0CBBB000088
:1042780073B54B7804460D46092B00F2FC80DFE845
:1042880013F0CE00E500FA00E100FA0077000A001A
:10429800FA00BD0093004B881A0A013A062A00F278
:1042A800EA80DFE812F007000B001800E800E800D9
:1042B8003D004900D0F810321B682CE0027CD0F891
:1042C80014320AB99B6A00E0DB6A0DF106009847D0
:1042D800022301463CE0DBB2052B00F2CC80DFE88C
:1042E80003F003070B0F1317D0F810325B6812E0C6
:1042F800D0F810329B680EE0D0F81032DB680AE084
:10430800D0F810321B6906E0D0F810325B6902E081
:10431800D0F810329B69207C0DF10601984709E01E
:10432800037C002B40F0A780D0F814320DF1060072
:104338005B6B984701460CE0037C002B40F09B80A8
:10434800D0F814320DF106001B6B9847072301467D
:104358004B70BDF80630002B00F09180EA88002AE7
:1043680000F08D809A4228BF1A46ADF8062054E026
:104378008B88002B7FD1CB88002B7CD190F8FC3127
:104388008E78032B06F07F0675D080F8FE613146E3
:1043980000F059FB204600F035F90EB1022300E089
:1043A800012384F8FC316AE08978364E012931709E
:1043B80061D890F8FC31022B02D0032B08D05AE0C8
:1043C800002954D001210323416080F8FC310FE01B
:1043D80031B9022380F8FC314160FFF753FE46E013
:1043E8004168012943D0C9B2FFF74CFE31786160BA
:1043F8002046FFF73CFE022839D13CE0CA88012A52
:1044080039D190F8FC31022B03D0032B33D1011D95
:1044180015E00146002341F8083F20460FE090F8D8
:10442800FC31023B012B26D80123C360D0F80432AB
:104438000BB10323C360204604F10C01022200F0F3
:10444800B1F81CE04B88012B19D108E090F8FC3139
:10445800023B012B0FD84B88012B10D10023C4F845
:104468000432D4F8143220469B68294698472046DF
:1044780000F0C8F803E020462946FFF7EDFE0020CB
:1044880002B070BDA40B002038B590F8FC31032BA6
:1044980004460D460CD10B79012B09D8D0F81432FB
:1044A8009B689847EB882BB9204600F0ABF801E0F1
:1044B800FFF7D2FE002038BD70B54E788A88012EED
:1044C80004460D46D3B210D026D3032E4BD190F814
:1044D800FC21022A27D0032A43D14A8892B95E06D2
:1044E80010D0194600F08EFA0CE090F8FC21022A50
:1044F80019D0032A35D14A88AABB590608D01946CB
:1045080000F087FAD4F8143220469B682946984769
:10451800204600F077F826E090F8FC51022D02D0F2
:10452800032D06D01DE05A061DD0194600F06AFA80
:1045380019E003F07F0512F0800F00EB051519460E
:1045480014BF143505F5827500F06AFA10B101231D
:104558002B6000E0286020462946022200F022F85D
:1045680001E0FFF779FE002070BD30B5C8B1044600
:10457800231A14F8015BDBB2002DF9D15B0002337A
:1045880013800B7003234B700138022310F8014F7E
:104598003CB15A1CD2B2CC5402330024DBB28C5446
:1045A800F4E730BD38B513460D460222C0F8F421B1
:1045B8008361C36100212A4600F04CFA002038BD0F
:1045C80010B50C4613460021224600F043FA00209D
:1045D80010BD38B513460D460322C0F8F421C0F8C3
:1045E8000831C0F80C3100212A4600F03AFA0020C0
:1045F80038BD10B50C4613460021224600F031FAAA
:10460800002010BD08B500210423C0F8F4310A4683
:104618000B4600F01FFA002008BD08B5002105234D
:10462800C0F8F4310A460B4600F01BFA002008BD1A
:10463800D0F818321BB10020C3F8140270470220CA
:104648007047D0F81C3210B5D0F818425BB194F816
:104658000002FF2807D09B6894F80122214698475A
:10466800FF2384F80032002010BD0000432303809C
:104678000048704718000020432303800048704713
:10468800E40000204323038000487047A000002076
:104698000A230380004870479400002038B5054677
:1046A800D0F8184200F0E4F9D5F81832C4F80C0232
:1046B8004BB1D5F81C32D4F80402DB6804F5037159
:1046C8009847002038BD022038BDF8B50C46097857
:1046D800D0F8185201F06003202B064620D1E2885A
:1046E8006378BAB109060BD5D0F81C1218468F6842
:1046F8002946B84730462946E288FFF753FF0FE0BE
:1047080085F80032E38885F801322946E288FFF708
:1047180060FF05E0D0F81C1218468C681146A047C7
:104728000020F8BD10B58121044600F064F901218C
:10473800204600F060F92046822100F05CF9D4F8A8
:10474800183253B1D4F81C325B689847D4F8180271
:1047580000F098F90023C4F81832002010BDF8B50D
:10476800037C0446812102224BB94FF4007300F008
:1047780038F92046012102224FF4007306E0402355
:1047880000F02FF9204601210222402300F029F9E8
:10479800822103220823204600F023F94FF40770F2
:1047A80000F06CF90646C4F81802C8B1D4F81C32F7
:1047B8001B689847277CD6F804220025C6F81452AF
:1047C8002046C6F8185201212FB94FF4007300F0A3
:1047D80048F93846F8BD402300F043F92846F8BDAB
:1047E8000120F8BD19B1C0F81C1200207047022042
:1047F8007047D0F818320020C3F80812C3F8102206
:104808007047D0F818320020C3F80412704738B542
:10481800D0F8185275B1D5F814426CB9B5F8103201
:10482800D5F80822812100F015F90123C5F81432C2
:10483800204638BD022038BD012038BDD0F81832D6
:1048480010B563B1047CD3F80422012114B94FF4E4
:10485800007300E0402300F004F9002010BD02209E
:1048680010BD00002DE9F041244C636943F4003386
:104878006361636986B043F4802363614FF4C05673
:10488800112300254FF003080E2701A94FF090408F
:10489800029301960395CDF810800597FEF788FBE3
:1048A80031462A464FF09040FEF74CFC0120FEF7B7
:1048B8000DFB314601224FF09040FEF743FC0223E6
:1048C80001A94FF09040029301960395CDF810800E
:1048D8000597FEF76DFBE36943F40003E361A36901
:1048E80043F00103A36105212A461420FEF70EFBBD
:1048F8001420FEF73BFB06B0BDE8F0810010024033
:10490800014601F5A271D0F87401FFF7C2BB1C2360
:1049180003FB0103D0F87401D3F8C420FFF7E6BB0A
:104928001C2303FB0103D0F874019A6BFFF70EBC3C
:10493800D0F87401FFF770BC10B504460121D0F817
:104948007401FFF766FCD4F87401BDE81040FFF766
:1049580041BC70477047000038B51C4A05461C48E2
:10496800C5F820020823002480E80C000223C46054
:1049780003618360C0F87451FEF7EDFB21462246BF
:10498800D5F820024023FFF70EFB802122460B4674
:10499800D5F82002FFF707FB2246D5F8200281212F
:1049A800C023FFF700FB2246D5F8200201214FF46F
:1049B8008873FFF7F8FAD5F82002822122464FF4CF
:1049C8008073FFF7F0FA204638BD00BF005C004056
:1049D800E010002008B5D0F82002FEF709FC0020FE
:1049E80008BD10B51446D0F820021A462346FEF733
:1049F8001BFC002010BD08B5D0F82002FEF7B0FD62
:104A0800002008BD08B5D0F82002FFF717FA0020EB
:104A180008BD08B5D0F82002FFF761FA002008BDEC
:104A280011F0800FD0F8202218BF01F07F034FF05B
:104A38001C0015BF00FB032100FB012191F82A008F
:104A480091F8B600704708B5D0F82002FEF7D6FBFB
:104A5800002008BD08B5D0F82002FEF7DBFE0020D4
:104A680008BD08B5D0F82002FEF752FE002008BDA8
:104A780008B5D0F82002FEF7C5FE08BD004870470B
:104A8800A80B00207047000012230B8000487047D5
:104A9800C98E010804230B8000487047788E0108EE
:104AA80030B50024E3B293420DD2030F092B94BF13
:104AB8003033373301F8143001EB4403002500018B
:104AC8005D700134EEE730BD1A2310B5094A0B803A
:104AD800094B50681B681468181808D00749082241
:104AE800FFF7DEFF204606490422FFF7D9FF0548F5
:104AF80010BD00BFB0F7FF1FACF7FF1F4601002035
:104B0800560100204401002010B5044C04480A4610
:104B18002146FFF72AFD204610BD00BF581200208D
:104B28007C8E010810B5044C04480A462146FFF75C
:104B38001CFD204610BD00BF581200209D8E0108A4
:104B480010B5044C04480A462146FFF70EFD2046DE
:104B580010BD00BF58120020B08E010810B5044CDB
:104B680004480A462146FFF700FD204610BD00BF55
:104B780058120020BB8E01080020704708B50B466C
:104B88000246114600201A68FDF7BEF90248FFF7F1
:104B980055FE002008BD00BFB80E002008B5034927
:104BA8000348FFF72EFE002008BD00BFC8130020F1
:104BB800B80E0020202812D0212822D1124B1A68C2
:104BC8000A701A68120A4A705A888A70DA78CA70A3
:104BD8001A790A715A794A719B798B7111E08B782D
:104BE8004A7809481B0443EA02230A781343CA781F
:104BF80043EA026303600B7903714B7943718B7944
:104C080083710020704700BF6001002070B5044622
:104C180086B068B101280BD0022809D0032807D034
:104C2800042805D0052803D0062801D0072804D178
:104C38000D4A536943F4001353610C4B0C4E33F87F
:104C4800145056F82400019501230293039301A9F7
:104C580003230493FEF7ACF956F8240029460022F2
:104C6800FEF770FA06B070BD00100240DC8E010835
:104C78007C010020044A034652F82000034A32F817
:104C880013100122FEF75EBA7C010020DC8E0108B9
:104C9800044A034652F82000034A32F8131000224F
:104CA800FEF750BA7C010020DC8E0108044A034656
:104CB80052F82000034A32F81310FEF748BA00BF32
:104CC8007C010020DC8E010810B5194B86B018B99C
:104CD8005A6942F400325A619A6942F001029A61B3
:104CE80069B9012301930223039303230493114B0E
:104CF800029153F8200001A9FEF75AF916E001299C
:104D080014D1032304930C4B02930A4B019153F8DB
:104D18002000002401A90394FEF74AF906200F2178
:104D28002246FEF7F3F80620FEF720F906B010BD7C
:104D380000100240780100200000111008B5034B54
:104D4800012153F82000FEF7F7F908BD780100208B
:104D5800024B1B689B6A03B118477047D80D0020A7
:104D6800024B1B689B6A03B118477047DC0D002093
:104D7800DFF834D0002103E00C4B5B58435004317A
:104D88000B480C4B42189A42F6D30B4A02E0002318
:104D980042F8043B094B9A42F9D3FDF78DFB00F02A
:104DA80017F8FCF7D5FAFEE7008000208C9101087F
:104DB800000000203C0A00203C0A0020041C0020BF
:104DC800FEE70000014B1868704700BFC8050020C7
:104DD80070B50F4E0F4D761BB61018BF002405D0C6
:104DE800013455F8043B9847A642F9D10A4E0B4DB9
:104DF800761B04F0F7FCB61018BF002406D0013467
:104E080055F8043B9847A642F9D170BD70BD00BF64
:104E1800809101088091010888910108809101081A
:104E280070B4840746D0541E002A41D0CDB2034640
:104E380002E0621EE4B3144603F8015B9A07F8D156
:104E4800032C2ED9CDB245EA05250F2C45EA054598
:104E580019D903F110022646103E0F2E42F8105CB5
:104E680042F80C5C42F8085C42F8045C02F110025B
:104E7800F2D8A4F1100222F00F0204F00F0410324D
:104E8800032C13440DD91E462246043A032A46F839
:104E9800045BFAD8221F22F003020432134404F000
:104EA80003042CB1C9B21C4403F8011BA342FBD173
:104EB80070BC704714460346C2E700BF0FB400B584
:104EC800074983B004AB086853F8042B8168019341
:104ED80000F04EFA03B05DF804EB04B0704700BF71
:104EE800C8050020034B1B6801469A68184603F062
:104EF800E5BF00BFC8050020F0B5044689B00846E4
:104F08000D4600F02BF9A368114F9A8904950221E8
:104F180000F1010E012604AD029191040590CDF82F
:104F28000CE006970796019506D4596E42F4005294
:104F380021F400519A8159662046194601AA02F0C7
:104F480047FF002814BF4FF0FF300A2009B0F0BD1A
:104F5800F88F0108024B01461868FFF7CDBF00BF64
:104F6800C80500202DE9F0413A4C26680D46044654
:104F780090461F4616B1B36B002B3CD0B8F1020F18
:104F88002FD8002F2DDB2146304602F047FDA1899E
:104F980000236360A3610B0627D421F0830189B243
:104FA800B8F1020FA1812AD0002D36D0B8F1010F37
:104FB80011D089B201F00800274BF36380B2256055
:104FC8002561676178B111F0030F18BF0027A7604A
:104FD8000020BDE8F08141F001017B42A181A3617D
:104FE800E7E74FF0FF30BDE8F0812169304602F075
:104FF80017FEA189D1E7304602F0A4FDBEE70020E4
:1050080004F1430341F0020100250122A181A560BA
:10501800236023616261BDE8F081002F08BF4FF46F
:105028008067384603F008F9054628B1A18941F0A0
:10503800800189B2A181B9E74FF4806003F0FCF8E0
:10504800054618B9A1894FF0FF30D9E74FF48067BA
:10505800ECE700BFC8050020517A00080F4B30B4B8
:105068001D6802E0D21A16D1ABB110F8014B2B190A
:1050780022465B7803F00303012B11F8013B08BFBC
:1050880004F12002EC18647804F00304012CE9D13F
:105098002033D21AE9D0104630BC70479C0100205A
:1050A80080EA0102844612F0030F4FD111F0030F7A
:1050B80032D14DF8044D11F0040F51F8043B0BD0D8
:1050C800A3F101329A4312F0803F04BF4CF8043B2D
:1050D80051F8043B16D100BF51F8044BA3F101323B
:1050E8009A4312F0803FA4F101320BD14CF8043BF3
:1050F800A24312F0803F04BF51F8043B4CF8044B24
:10510800EAD023460CF8013B13F0FF0F4FEA332394
:10511800F8D15DF8044B704711F0010F06D011F873
:10512800012B0CF8012B002A08BF704711F0020F61
:10513800BFD031F8022B12F0FF0F16BF2CF8022B4C
:105148008CF8002012F47F4FB3D1704711F8012B6F
:105158000CF8012B002AF9D1704700BF20F0030199
:1051680010F00300C0F1000051F8043B00F1040CFA
:105178004FEACC0C6FF000021CBF22FA0CF213436A
:105188004FF0010C4CEA0C2C4CEA0C4CA3EB0C0233
:1051980022EA030212EACC1204BF51F8043B04309D
:1051A800F4D0C2F1000102EA0102B2FA82F2C2F1BD
:1051B8001F0200EBD2007047024B1A6801235C32D1
:1051C80000F002B8C8050020F0B420B307460D4629
:1051D80017F8016B01E0A64216D015F8014B002C18
:1051E800F9D1EEB13E460C4616F8015B00E073B10A
:1051F80014F8013BAB42FAD15DB100233B70166055
:1052080006463046F0BC704763B13846DEE737469D
:10521800E8E72E46F3E710680028D7D10646F0E7FE
:105228001660EEE7176006460370EAE72DE9F04FCF
:10523800464C0F46D4F800E000E027463C4614F8F8
:10524800015B0EEB0506767806F0080606F0FF0807
:10525800002EF2D12D2D51D02B2D04BF7D78BC1CF2
:105268005BB1102B5BD04FF0FF39B9FBF3F903FBAF
:1052780009FB6FEA0B0B9A4607E0302D43D00A234F
:10528800DFF8CC909A464FF0050B0027BC460CE09F
:10529800303DAB4219DD7E1C05D0CC4524D821D049
:1052A8000AFB0C5C012714F8015B0EEB0506767807
:1052B80016F0040FECD116F0030606D0012E0CBF31
:1052C80037265726AD1BAB42E5DC002F11DBC8F1B2
:1052D80000008CEA000040444AB107B1611E116029
:1052E800BDE8F08F5D45DBDD4FF0FF37DBE7BDE85C
:1052F800F08F222303604FF0FF30EDE7BC1C7D7870
:105308004FF00108ACE7237803F0DF03582B13D0E4
:1053180008239A464FF0070B6FF06049B5E7302D28
:1053280005D04FF00F0B6FF070499A46ADE726781D
:1053380006F0DF06582EF4D14FF0100A6578534670
:105348004FF00F0B02346FF070499EE79C0100206C
:105358009999991930B4044C0D46134601462A46CA
:10536800206830BCFFF762BFC805002000000000BD
:105378002DE9F04FBDB01C4689460492074602F05D
:10538800E7FE036811931846FFF7E8FE08941290A9
:105398001FB1BB6B002B00F0F380B9F80C2093B25F
:1053A8009E040AD4D9F8641042F4005321F4005141
:1053B800A9F80C30C9F864109BB21D0740F1AA8007
:1053C800D9F81020002A00F0A58003F01A030A2B50
:1053D80000F0AC809FED6E7B00238DED0E7B0D936E
:1053E800219320931093139305932CAB1F931C4682
:1053F800B846049D2B78002B00F0C680252B02D1DF
:10540800C2E0252B03D015F8013F002BF9D1049BEE
:10541800EE1A7EB1209B219A04992160013332440F
:10542800072B66602192209300F393800834059B34
:10543800334405932B78002B00F093800023691CDC
:105448004FF0FF3A6D788DF85F301A460693029355
:1054580056464B1CA5F12001582900F2CD83DFE800
:1054680011F05C02CB03CB030203CB03CB03CB03CA
:10547800CB03CB03CB030903D202CB03F8015303BD
:10548800CB03D602DD02DD02DD02DD02DD02DD0234
:10549800DD02DD02DD02CB03CB03CB03CB03CB0361
:1054A800CB03CB03CB03CB03CB0371029302CB0318
:1054B8009302CB03CB03CB03CB03CB02CB03CB03AE
:1054C8006E03CB03CB03CB03CB03CB03B503CB03D7
:1054D800CB038B03CB03CB03CB03CB03CB03CB0394
:1054E800CB03CB03CB03CB03A00317039302930295
:1054F800930230031703CB03CB033703CB034103DA
:10550800FF01EC026302CB031102CB039B00CB0328
:10551800CB0336023846494601F07AF9A0B9B9F802
:105528000C3003F01A030A2B7FF454AFB9F90E308C
:10553800002BFFF64FAF38464946049A234601F040
:105548002BF93DB0BDE8F08F4FF0FF303DB0BDE81E
:10555800F08F404649461FAA03F07EFF40B92CACA5
:1055680065E7219B23B1404649461FAA03F074FF13
:10557800B9F80C305A06E7D405983DB0BDE8F08F6D
:10558800384602F0DFFA08E7049D53E7AFF30080DE
:1055980000000000000000000493029BB2469E0633
:1055A80040F11E83089F073727F0070303F108021D
:1055B800D3E90067089201234FF0000C8DF85FC013
:1055C800CDF82CA0BAF1000F03DB029A22F080027A
:1055D800029256EA070240F01F83BAF1000F00F06A
:1055E8001C84012B00F02083022B00F052842CA98C
:1055F800F20842EA4772F80806F00703074616461B
:10560800303356EA070201F8013DF1D1029A0A91B6
:10561800D00700F1F9842CAB5B1A0793079A9245DF
:105628005346B8BF1346039300230C93BCF1000FF5
:1056380002D0039B01330393029B13F002030993E7
:1056480002D0039B02330393029B13F0840640F0BD
:10565800E082069B039AC2EB030ABAF1000F40F3FB
:10566800D882BAF1100F2199209AB34FC8BF4FF0D2
:10567800100B07DC1EE0AAF1100ABAF1100F04F1B2
:10568800080417DD01321031072A2191209284E89D
:105698008008F0DD404649461FAA03F0DDFE0028D9
:1056A8007FF466AFAAF1100ABAF1100F2199209A77
:1056B8002CACE7DC01320AEB010B072ACDF884B0E9
:1056C800209284E8800400F34A849DF85FC008347F
:1056D800BCF1000F0FD0209B01330BF1010B0DF132
:1056E8005F010122072BCDF884B0209384E80600DF
:1056F80000F3B1830834099B73B1209B01330BF18C
:10570800020B18A90222072BCDF884B0209384E855
:10571800060000F3AC830834802E00F0F0820B9B67
:10572800079AC2EB030ABAF1000F32DDBAF1100F83
:10573800209A824F22DD10265B4606E0AAF1100A65
:10574800BAF1100F04F1080417DD01321033072AEB
:105758002193209227606660F0DD404649461FAAE3
:1057680003F07AFE00287FF403AFAAF1100ABAF119
:10577800100F219B209A2CACE7DC9B460132D344C6
:10578800072ACDF884B0209284E8800400F3578378
:105798000834029BDB0500F15B82209B07990A9A7B
:1057A800226001338B44072BCDF884B061602093CD
:1057B80000F31D830834029B59073AD5069B039AC8
:1057C8009D1A002D35DD102D209B5B4F1EDD102608
:1057D8005A4604E0103D102D04F1080415DD01338C
:1057E8001032072B2192209327606660F2DD404635
:1057F80049461FAA03F030FE00287FF4B9AE103DD9
:10580800102D219A209B2CACE9DC93460133AB4444
:10581800072BCDF884B020932760656009DD4046EA
:1058280049461FAA03F018FE00287FF4A1AEDDF850
:1058380084B0059B039A06998A42ACBF9B185B18F3
:105848000593BBF1000F40F0DE82002320932CACBF
:10585800CFE5194602981D7840F004000290F8E55B
:105868000493029B13F02003B24600F07381089F53
:10587800073727F0070303F10802D3E90067089206
:10588800002399E6089A049313680A934FF0000BD3
:105898008DF85FB0171D002B00F05E86002E0A9869
:1058A800C0F212865946324602F060FF002800F026
:1058B8008F860A9BCDF82CB0C31A0793089723EA62
:1058C800E3730393CDF830B09DF85FC0AEE6049360
:1058D8001B4B1093029B8DF85F209906B24640F14E
:1058E8005581089F073727F00703D3E9006703F1BD
:1058F80008020892029BDB0740F1E48256EA07039C
:1059080000F0E082029A8DF86150302342F00202E2
:105918008DF86030029202234EE61D781946002A5F
:105928007FF497AD202294E5029941F0200102917D
:105938001D7819468DE500BF50900108FC8F0108BD
:10594800309001080493029B8DF85F2043F0100308
:105958000293029B9806B24640F1A280089F07373F
:1059680027F00707D7E9002307F108010891164631
:105978001F46002A73F10003C0F21C849DF85FC023
:10598800CDF82CA001231DE60493029B089F8DF8F7
:105998005F201B07B246B34607F1070740F19B8417
:1059A80027F0070393ED007B8DED0E7B03F10802D2
:1059B80008929DED0E0B03F0A3FC012840F008842B
:1059C800DDE90E0100220023FBF71CF9002840F056
:1059D800EC859DF85FC0029E994A9A4B03210020EE
:1059E80026F08006472DD8BF1A4603910B900296E1
:1059F8000A9207910C9019E6029941F00801029168
:105A08001D78194625E51D7819462B2221E50299AE
:105A180041F0800102911D7819461AE5A5F1300080
:105A2800002113F8015B01EB810100EB4101A5F1B5
:105A380030000928F5D906910CE50899049330231C
:105A4800029A8DF860300B460433782542F0020242
:105A580008937D4B1093B24602920E688DF8615000
:105A680000270223A8E5029941F0010102911D785F
:105A78001946EEE4089D296806910846002829463B
:105A880001F10401C0F2EE8408911D781946E0E4A2
:105A98000493029B8DF85F209806B2463FF55EAFEF
:105AA800029BD90600F19B82029B5A0640F197821D
:105AB8000899B1F900600431F71732463B4608915E
:105AC80057E7029941F0400102911D781946C0E458
